:100000000C9463000C9447120C9474120C948B00A3
:100010000C948B000C948B000C948B000C94800F30
:100020000C948B000C948B000C948B000C948B0024
:100030000C948B000C948B000C948B000C948B0014
:100040000C94501B0C948B000C94F0090C948B00B6
:100050000C948B000C948B000C948B000C948B00F4
:100060000C948B000C948B000200000000240027ED
:10007000002A0000000000250028002B00000000DE
:1000800000230026002900040404040404040402DC
:100090000202020202030303030303010204081025
:1000A00020408001020408102001020408102000F2
:1000B0000000070002010000030406000000000029
:1000C000000000004C0C11241FBECFEFD8E0DEBFB3
:1000D000CDBF12E0A0E0B1E0EAE2FFE302C005908C
:1000E0000D92A434B107D9F713E0A4E4B2E001C043
:1000F0001D92A230B107E1F710E0C6ECD0E004C0D9
:100100002297FE010E94741FC43CD107C9F70E94C8
:10011000B51E0C94931F0C940000EF92FF920F9366
:100120001F937B018C0120E030E040E05FE40E94FF
:10013000090488238CF0C801B70120E030E040E0DA
:100140005FE40E9405020E94C7049B01AC0120509D
:1001500030404040504806C0C801B7010E94C70463
:100160009B01AC01B901CA011F910F91FF90EF9063
:100170000895A0E0B0E0EFEBF0E00C943B1FDC0151
:100180002B01FA019C91923008F439C1EB0188816E
:10019000823008F433C1943069F4843009F02FC1FF
:1001A00011969C9111978981981709F428C1A3E0B1
:1001B000B1E025C1843009F421C18230A9F4923024
:1001C00009F01DC19A01AD0188E0EA010990AE0174
:1001D000E90109929E018150C1F7E20189811196DE
:1001E0009C918923818308C1923009F407C112963A
:1001F0002D903C901397EB018A819B811496AD90D2
:10020000BD90CD90DC901797EC80FD800E811F8112
:100210009101281B390BB90137FF04C066277727E6
:10022000621B730B603271050CF061C0121613066D
:100230006CF537014801062E04C096948794779494
:1002400067940A94D2F721E030E040E050E004C027
:10025000220F331F441F551F6A95D2F7215030409B
:10026000404050402E213F2140235123211531058C
:100270004105510521F021E030E040E050E07901F6
:100280008A01E628F728082919293CC0232BD1F137
:10029000260E371E35014601062E04C0969487941B
:1002A000779467940A94D2F721E030E040E050E080
:1002B00004C0220F331F441F551F6A95D2F72150E7
:1002C0003040404050402A213B214C215D212115E6
:1002D00031054105510521F021E030E040E050E0DA
:1002E00059016A01A628B728C828D9280BC0821549
:1002F00093052CF01C01AA24BB24650103C0EE2445
:10030000FF24870111969C91D20111968C91981728
:1003100009F445C0992339F0A80197012A193B092E
:100320004C095D0906C0A60195012E193F09400B35
:10033000510B57FD08C011823382228224833583FA
:10034000468357831DC081E08183338222828827C0
:100350009927DC01821B930BA40BB50B8483958337
:10036000A683B7830DC0220F331F441F551F24835C
:100370003583468357838281938101979383828358
:100380002481358146815781DA01C9010197A1098C
:10039000B1098F5F9F4FAF4FBF4328F30BC09183CD
:1003A00033822282EA0CFB1C0C1D1D1DE482F582A7
:1003B0000683178383E080832481358146815781BA
:1003C00057FF1AC0C901AA2797FDA095BA2F8170BF
:1003D0009070A070B0705695479537952795822BF1
:1003E000932BA42BB52B84839583A683B78382811B
:1003F0009381019693838283DF0101C0D201CD01F5
:10040000CDB7DEB7E2E10C94571FA0E2B0E0EBE01D
:10041000F2E00C94471F69837A838B839C832D833E
:100420003E834F835887E9E0EE2EF12CEC0EFD1E43
:10043000CE010196B7010E94B8068E010F5E1F4FD4
:10044000CE010596B8010E94B8068A8991E08927F5
:100450008A8BC701B801AE01475E5F4F0E94B900A9
:100460000E94E305A096E6E00C94631FA0E2B0E0D2
:10047000ECE3F2E00C94471F69837A838B839C83BF
:100480002D833E834F835887F9E0EF2EF12CEC0E3D
:10049000FD1ECE010196B7010E94B8068E010F5EC7
:1004A0001F4FCE010596B8010E94B806C701B801DA
:1004B000AE01475E5F4F0E94B9000E94E305A0961F
:1004C000E6E00C94631FA0E2B0E0E9E6F2E00C94F1
:1004D0003B1F69837A838B839C832D833E834F8369
:1004E0005887CE010196BE01675F7F4F0E94B80614
:1004F000CE010596BE016F5E7F4F0E94B8069985BA
:10050000923088F089898230C8F0943019F48230B2
:1005100051F404C0843029F4923081F483E091E0F6
:10052000C6C0923049F420E09A858A89981321E068
:100530002A87CE010996BBC0823049F420E09A8513
:100540008A89981321E02A8BCE014196B0C02D8470
:100550003E844F8458886D887E888F88988CEE24DE
:10056000FF248701AA24BB24650140E050E060E03D
:1005700070E0E0E0F0E0C10181709070892BE9F05B
:10058000E60CF71C081D191D9A01AB012A0D3B1D35
:100590004C1D5D1D80E090E0A0E0B0E0E614F704A3
:1005A0000805190520F481E090E0A0E0B0E0BA0170
:1005B000A901480F591F6A1F7B1FAA0CBB1CCC1C2A
:1005C000DD1C97FE08C081E090E0A0E0B0E0A82A22
:1005D000B92ACA2ADB2A3196E032F10549F0660CC5
:1005E000771C881C991C5694479437942794C3CF42
:1005F000FA85EA892B893C898B859C85280F391FD0
:100600002E5F3F4F17C0CA0181709070892B61F037
:1006100016950795F794E79480E090E0A0E0B0E8A5
:10062000E82AF92A0A2B1B2B76956795579547954B
:100630002F5F3F4F77FDE7CF0CC0440F551F661F5C
:10064000771F17FD4160EE0CFF1C001F111F21508A
:100650003040403090E0590790E0690790E4790716
:1006600060F32B8F3C8FDB01CA018F779070A070F5
:10067000B07080349105A105B10561F447FD0AC051
:10068000E114F1040105110529F0405C5F4F6F4F43
:100690007F4F40781A8EFE1711F081E08A8F4D8FC0
:1006A0005E8F6F8F78A383E0898FCE0149960E9479
:1006B000E305A096E2E10C94571FA8E1B0E0E3E661
:1006C000F3E00C94431F69837A838B839C832D838F
:1006D0003E834F835887B9E0EB2EF12CEC0EFD1EC4
:1006E000CE010196B7010E94B8068E010F5E1F4F22
:1006F000CE010596B8010E94B8062985223008F47B
:100700007EC03989323010F4B8017CC08A859A895C
:1007100089278A87243011F0223031F4231709F019
:100720006EC063E071E06EC0343039F41D861E8601
:100730001F86188A1C861B8604C0323021F484E090
:100740008987B7015FC02B853C858B899C89281BD5
:10075000390B3C872B87ED84FE840F851889AD8883
:10076000BE88CF88D88CEA14FB040C051D0540F424
:10077000EE0CFF1C001F111F215030403C872B87BF
:1007800020E030E040E050E080E090E0A0E0B0E425
:1007900060E070E0EA14FB040C051D0540F0282B16
:1007A000392B4A2B5B2BEA18FB080C091D09B6955F
:1007B000A79597958795EE0CFF1C001F111F6F5F83
:1007C0007F4F6F31710531F7DA01C9018F77907072
:1007D000A070B07080349105A105B10561F427FDCA
:1007E0000AC0E114F1040105110529F0205C3F4F16
:1007F0004F4F5F4F20782D873E874F87588BBE0124
:10080000675F7F4FCB010E94E3056896EAE00C9496
:100810005F1FA8E1B0E0EFE0F4E00C94471F6983AC
:100820007A838B839C832D833E834F83588789E013
:10083000E82EF12CEC0EFD1ECE010196B7010E94B0
:10084000B8068E010F5E1F4FCE010596B8010E94BB
:10085000B8068985823040F08989823028F0C70146
:10086000B8010E94300701C08FEF6896E6E00C9453
:10087000631FA8E1B0E0EFE3F4E00C94471F698345
:100880007A838B839C832D833E834F83588789E0B3
:10089000E82EF12CEC0EFD1ECE010196B7010E9450
:1008A000B8068E010F5E1F4FCE010596B8010E945B
:1008B000B8068985823040F08989823028F0C701E6
:1008C000B8010E94300701C081E06896E6E00C9410
:1008D000631FA8E0B0E0EFE6F4E00C94441F9B0136
:1008E000AC0183E08983DA01C9018827B7FD8395CC
:1008F0009927AA27BB27B82E211531054105510597
:1009000019F482E089833AC08823A9F0203080E07E
:10091000380780E0480780E8580729F460E070E075
:1009200080E09FEC30C0EE24FF248701E21AF30A36
:10093000040B150B02C079018A018EE1C82ED12C5F
:10094000DC82CB82ED82FE820F831887C801B7015B
:100950000E94940501971816190684F4082E04C005
:10096000EE0CFF1C001F111F0A94D2F7ED82FE82CD
:100970000F831887C81AD90ADC82CB82BA82CE01CB
:1009800001960E94E3052896E9E00C94601FACE014
:10099000B0E0EDECF4E00C944B1F69837A838B8319
:1009A0009C83CE010196BE016B5F7F4F0E94B8060B
:1009B0008D81823061F1823050F1843021F48E815A
:1009C000882351F12EC02F81388537FD20C06E81DC
:1009D0002F3131051CF06623F9F023C08EE190E041
:1009E000821B930B29853A854B855C8504C05695FF
:1009F0004795379527958A95D2F76623B1F050959C
:100A00004095309521953F4F4F4F5F4F0EC020E0EE
:100A100030E040E050E009C02FEF3FEF4FEF5FE7DD
:100A200004C020E030E040E050E8B901CA012C9653
:100A3000E2E00C94671FA8E0B0E0E1E2F5E00C947E
:100A4000431F7B018C01611571058105910519F426
:100A500082E0898360C083E089838EE1C82ED12C37
:100A6000DC82CB82ED82FE820F831887C801B7013A
:100A70000E949405FC013197F7FF3BC022273327E2
:100A80002E1B3F0B57016801022E04C0D694C79459
:100A9000B794A7940A94D2F740E050E060E070E089
:100AA00081E090E0A0E0B0E004C0880F991FAA1F89
:100AB000BB1F2A95D2F70197A109B1098E219F2169
:100AC000A023B1230097A105B10521F041E050E03A
:100AD00060E070E04A295B296C297D294D835E83A3
:100AE0006F8378878EE190E08E1B9F0B9C838B83B6
:100AF00012C0309781F00E2E04C0EE0CFF1C001FB8
:100B0000111F0A94D2F7ED82FE820F831887CE1A46
:100B1000DF0ADC82CB821A82CE0101960E94E305B5
:100B20002896EAE00C945F1FEF92FF920F931F93B9
:100B30007B018C0180E0E81680E0F80681E0080780
:100B400080E0180788F48FEFE816F104010511051D
:100B500031F028F088E090E0A0E0B0E017C080E03D
:100B600090E0A0E0B0E012C080E0E81680E0F80677
:100B700080E0080781E0180728F088E190E0A0E015
:100B8000B0E004C080E190E0A0E0B0E020E230E01E
:100B900040E050E0281B390B4A0B5B0B04C0169554
:100BA0000795F794E7948A95D2F7F701E55FFE4F32
:100BB0008081281B310941095109C9011F910F91F9
:100BC000FF90EF900895DF92EF92FF920F931F93A3
:100BD000FC01E480F58006811781D180808182301C
:100BE00048F480E090E0A0E1B0E0E82AF92A0A2B7E
:100BF0001B2BA5C0843009F49FC0823021F4EE2461
:100C0000FF24870105C0E114F1040105110519F461
:100C1000E0E0F0E096C0628173819FEF623879076F
:100C20000CF05BC022E83FEF261B370B2A31310561
:100C30002CF020E030E040E050E02AC0B801A701ED
:100C4000022E04C076956795579547950A94D2F77A
:100C500081E090E0A0E0B0E004C0880F991FAA1FD7
:100C6000BB1F2A95D2F70197A109B1098E219F21B7
:100C7000A023B1230097A105B10521F081E090E008
:100C8000A0E0B0E09A01AB01282B392B4A2B5B2B5B
:100C9000DA01C9018F779070A070B070803491052F
:100CA000A105B10539F427FF09C0205C3F4F4F4F24
:100CB0005F4F04C0215C3F4F4F4F5F4FE0E0F0E0DB
:100CC0002030A0E03A07A0E04A07A0E45A0710F05D
:100CD000E1E0F0E079018A0127C06038710564F530
:100CE000FB01E158FF4FD801C7018F779070A070CA
:100CF000B07080349105A105B10539F4E7FE0DC04F
:100D000080E490E0A0E0B0E004C08FE390E0A0E0D9
:100D1000B0E0E80EF91E0A1F1B1F17FF05C016954D
:100D20000795F794E794319687E016950795F79421
:100D3000E7948A95D1F705C0EE24FF248701EFEFF1
:100D4000F0E06E2F679566276795902F9F77D79471
:100D5000DD24D7948E2F8695492F462B582F5D2959
:100D6000B701CA011F910F91FF90EF90DF90089596
:100D7000FC01DB01408151812281622F6F7770E09D
:100D8000221F2227221F9381892F880F822B282F31
:100D900030E0991F9927991F11969C93119721155F
:100DA0003105A9F5411551056105710511F482E080
:100DB00037C082E89FEF13969C938E9312979A0107
:100DC000AB0167E0220F331F441F551F6A95D1F70F
:100DD00083E08C930DC0220F331F441F551F1296C2
:100DE0008D919C911397019713969C938E931297D4
:100DF000203080E0380780E0480780E4580758F347
:100E000014962D933D934D935C93179708952F3F20
:100E1000310579F4411551056105710519F484E036
:100E20008C93089564FF03C081E08C9312C01C92E0
:100E300010C02F57304013963C932E93129783E0A7
:100E40008C9387E0440F551F661F771F8A95D1F753
:100E5000706414964D935D936D937C9317970895EA
:100E60001F93DC01FB019C91923008F447C0808104
:100E7000823008F443C0943051F411961C918430B0
:100E800099F58181682F70E0611B71093FC0843042
:100E900021F0923031F48230B9F18181882389F1D7
:100EA0002DC011961C9111978230F1F08181181795
:100EB000D9F412962D913C911397828193818217D8
:100EC000930794F028173907BCF014968D919D91E3
:100ED0000D90BC91A02D2481358146815781281722
:100EE00039074A075B0718F4112341F00AC082173B
:100EF0009307A407B50740F4112319F061E070E0EF
:100F000005C06FEF7FEF02C060E070E0CB011F9182
:100F10000895CF93DF93BC018230910510F462E015
:100F200070E0A0910003B0910103ED01E0E0F0E07A
:100F300040E050E021C0888199818617970769F4C5
:100F40008A819B81309719F09383828304C09093A8
:100F5000010380930003FE0134C06817790738F459
:100F60004115510519F08417950708F4AC01FE01ED
:100F70008A819B819C01E9012097E9F64115510581
:100F8000A9F1CA01861B970B049708F4BA01E0E0A7
:100F9000F0E02AC08D919C91119784179507F9F480
:100FA0006417750781F412968D919C911397309771
:100FB00019F09383828304C090930103809300030C
:100FC000FD0132964FC0CA01861B970BFD01E80F49
:100FD000F91F6193719302978D939C9343C0FD0118
:100FE000828193819C01D9011097A1F68091FE0224
:100FF0009091FF02892B41F480910D0290910E0295
:101000009093FF028093FE0240910F0250911002D4
:101010004115510541F44DB75EB780910B02909197
:101020000C02481B590B2091FE023091FF0224173D
:101030003507B0F4CA01821B930B8617970780F01F
:10104000AB014E5F5F4F8417950750F0420F531F5F
:101050005093FF024093FE02F9016193719302C025
:10106000E0E0F0E0CF01DF91CF910895CF93DF93DF
:10107000009709F450C0EC0122971B821A82A091BC
:101080000003B0910103109709F140E050E0AC1764
:10109000BD0708F1BB83AA83FE0121913191E20FC4
:1010A000F31FAE17BF0779F48D919C911197280F0C
:1010B000391F2E5F3F4F3983288312968D919C9163
:1010C00013979B838A834115510571F4D0930103D3
:1010D000C093000320C012968D919C911397AD018F
:1010E000009711F0DC01D3CFFA01D383C2832191A1
:1010F0003191E20FF31FCE17DF0769F488819981E0
:10110000280F391F2E5F3F4FFA01318320838A81D8
:101110009B8193838283DF91CF910895A0E0B0E01B
:10112000E4E9F8E00C94431FEC01A880B980CA8080
:10113000DB80A114B104C104D10441F484E2A82EDF
:1011400089EDB82E8BE5C82E87E0D82EC601B501F3
:101150002DE133EF41E050E00E940C1F27EA31E41B
:1011600040E050E00E94B81E7B018C01C601B50131
:101170002DE133EF41E050E00E940C1FCA01B9019C
:101180002CEE34EF4FEF5FEF0E94B81E6E0D7F1D07
:10119000801F911F97FF04C06150704080409048AD
:1011A000688379838A839B839B01AC015F77B90154
:1011B000CA01CDB7DEB7EAE00C945F1F0E948E082B
:1011C000089581E192E00E948E08089560931102D3
:1011D0007093120280931302909314020895FB01FE
:1011E000DC010D900020E9F7119701900D9200208D
:1011F000E1F70895FC018191861721F08823D9F742
:10120000992708953197CF010895FB01DC018D9155
:10121000019080190110D9F3990B0895FB01DC01AD
:1012200001900D920020E1F70895FB01DC0141508F
:10123000504030F08D910190801919F40020B9F7D9
:10124000881B990B0895FB01DC014150504048F088
:1012500001900D920020C9F701C01D9241505040ED
:10126000E0F70895FC0181E090E00190061609F492
:10127000CF010020D1F701970895FB01519155232B
:10128000A9F0BF01DC014D9145174111E1F759F477
:10129000CD010190002049F04D9140154111C9F355
:1012A000FB014111EFCF81E090E001970895FB0130
:1012B0009F01E8944230C4F04532B4F44A3029F436
:1012C00097FB1EF4909581959F4F642F77270E947E
:1012D000271F805D8A330CF0895D8193CB010097D5
:1012E000A1F716F45DE251931082C9010C94D10963
:1012F000FA01CF93FF93EF93223044F1253234F576
:10130000C22FE894CA3049F497FB3EF4909580953B
:10131000709561957F4F8F4F9F4F2C2F3327442718
:101320005527FF93EF930E94EA1EEF91FF91605DB6
:101330006A330CF0695D6193B901CA016050704075
:101340008040904051F716F4CDE2C19310828F9106
:101350009F91CF910C94D109FA01CF93FF93EF9312
:101360002230CCF02532BCF4C22F2C2F3327442757
:101370005527FF93EF930E94EA1EEF91FF91605D66
:101380006A330CF0695D6193B901CA016050704025
:101390008040904051F710828F919F91CF910C9493
:1013A000D109DC01FC01672F71917723E1F73297B6
:1013B00004C07C916D9370836291AE17BF07C8F330
:1013C000089508950E94890708950E948907089545
:1013D000009711F00E94360808950E94E8090895C8
:1013E0001F920F920FB60F9211242F933F934F939A
:1013F0005F936F937F938F939F93AF93BF93EF937D
:10140000FF934091C600E091C402F091C502CF0164
:10141000019660E870E00E94D71E9C018091C60290
:101420009091C7022817390739F0EC5BFD4F4083D4
:101430003093C5022093C402FF91EF91BF91AF9109
:101440009F918F917F916F915F914F913F912F91DC
:101450000F900FBE0F901F9018958F92AF92CF9262
:10146000DF92EF92FF920F931F93DF93CF93CDB74D
:10147000DEB7FC018BE192E091838083738362830A
:10148000558344833783268311870087F386E2865A
:10149000D586C486A68687868D85808B8E85818B32
:1014A0008F85828BCF91DF911F910F91FF90EF90ED
:1014B000DF90CF90AF908F9008958F92AF92CF92A0
:1014C000DF92EF92FF920F931F93DF93CF93CDB7ED
:1014D000DEB7FC018BE192E09183808373836283AA
:1014E000558344833783268311870087F386E286FA
:1014F000D586C486A68687868D85808B8E85818BD2
:101500008F85828BCF91DF911F910F91FF90EF908C
:10151000DF90CF90AF908F9008952F923F924F928F
:101520005F926F927F928F929F92AF92BF92CF9273
:10153000DF92EF92FF920F931F93DF93CF9300D030
:101540000F92CDB7DEB79B838A835A016B0141347A
:1015500082E458078FE0680780E078070CF07FC0CE
:10156000442E3B2C2C2CD98260E874E88EE190E06C
:101570009501A6010E94EA1E39014A0108946108FA
:101580007108810891089694879477946794A401D0
:1015900093012F5F3F4F4F4F5F4F74E0220F331F78
:1015A000441F551F7A95D1F760E074E284EF90E014
:1015B0000E94EA1ECA01B9012FEF30E040E050E07E
:1015C0000E94B81E9501A6010E94EA1E8FEF90E0CE
:1015D000821B930B181619061CF4522E509402C04D
:1015E000522E539460E079E08DE390E0242D332D6A
:1015F000422D59810E94EA1E215030404040504007
:1016000056954795379527952F5F3F4F4F4F5F4F23
:1016100093E0220F331F441F551F9A95D1F760E0C6
:1016200074E284EF90E00E94EA1ECA01B9012FEF34
:1016300030E040E050E00E94B81E242D332D422DB2
:1016400059810E94EA1E8FEF90E0821B930B1816BF
:10165000190614F4209501C02F5F251518F5AA81ED
:10166000BB811896ED91FC91199781E090E052961C
:101670000C9002C0880F991F0A94E2F7808360E003
:1016800079E08DE390E0A60195010E94EA1E2150C9
:101690003040404050405695479537952795822FCA
:1016A000232F09C0AA81BB811896ED91FC9119974F
:1016B0001082862D272DAA81BB811496ED91FC9175
:1016C000159720831696ED91FC91179780831A96B3
:1016D000ED91FC911B97208141E050E0CA011E96DC
:1016E0000C901E9702C0880F991F0A94E2F7282BCE
:1016F00020831A96ED91FC911B972081CA011F96B9
:101700000C901F9702C0880F991F0A94E2F7282BAC
:1017100020831A96ED91FC911B97808150960C9036
:1017200002C0440F551F0A94E2F7842B80830F9068
:101730000F900F90CF91DF911F910F91FF90EF903D
:10174000DF90CF90BF90AF909F908F907F906F90E1
:101750005F904F903F902F900895FC01A285B38534
:101760004C9121E030E0C901068402C0880F991F26
:101770000A94E2F7809584238C93A285B3854C91DB
:10178000C901078402C0880F991F0A94E2F7809567
:1017900084238C93A285B3858C91008802C0220F8C
:1017A000331F0A94E2F7209528232C930895DC0137
:1017B0001296ED91FC911397E058FF4F8191919112
:1017C00080589F4F20813181821B930B60E870E02D
:1017D0000E94D71E0895DC011296ED91FC9113979B
:1017E000EE57FF4F2081318192918291E058F04075
:1017F0008217930719F42FEF3FEF05C0E20FF31F95
:101800008081282F30E0C9010895CF93DF93DC0158
:101810001296ED91FC911397EF01CE57DF4F48815F
:101820005981E058FF4F80819181E058F040841742
:10183000950719F42FEF3FEF0CC0E40FF51F20813F
:10184000CA01019660E870E00E94D71E99838883E0
:1018500030E0C901DF91CF910895DC011296ED913E
:10186000FC911397EE57FF4F808191819293829361
:101870000895FC01A085B18521898C9190E0022E0C
:1018800002C0959587950A94E2F780FFF6CF04840D
:10189000F585E02D608308958BE192E09093C90275
:1018A0008093C80284E492E09093CB028093CA02B2
:1018B00085EC90E09093CD028093CC0284EC90E094
:1018C0009093CF028093CE0280EC90E09093D1026F
:1018D0008093D00281EC90E09093D3028093D20267
:1018E00086EC90E09093D5028093D40284E08093BC
:1018F000D60283E08093D70287E08093D80285E008
:101900008093D90281E08093DA0208950F931F93A8
:10191000CF93DF938C01EB0109C02196D801ED91A3
:10192000FC910190F081E02DC80109956881662342
:10193000A1F7DF91CF911F910F910895EF92FF9240
:101940000F931F93CF93DF938C017B01EA010CC0AF
:10195000D7016D917D01D801ED91FC910190F0814D
:10196000E02DC80109952197209791F7DF91CF913C
:101970001F910F91FF90EF900895DC01ED91FC9184
:101980000280F381E02D09950895CF92DF92EF92C6
:10199000FF920F931F93CF93DF936C017B01C0E005
:1019A000D0E00EC0D601ED91FC9100811181C701FC
:1019B000BE010E946813682FC601F801099521969F
:1019C000F70184819581C817D90760F3DF91CF9122
:1019D0001F910F91FF90EF90DF90CF9008952F927D
:1019E0003F924F925F926F927F928F929F92AF92AF
:1019F000BF92CF92DF92EF92FF920F931F93DF93EC
:101A0000CF93CDB7DEB7A0970FB6F894DEBF0FBE69
:101A1000CDBF1C016A017B014115510561057105AE
:101A200049F440E350E060E070E020E030E00E94E4
:101A3000BB0D56C0882499245401422E5524662497
:101A4000772401E010E00C0F1D1F080D191DC701C0
:101A5000B601A30192010E94EA1EF8016083089476
:101A6000811C911CA11CB11CC701B601A3019201EC
:101A70000E94EA1EC901DA016C017D01C114D10482
:101A8000E104F104F1F681E0E82EF12CEC0EFD1EEC
:101A9000E80CF91C3E010894611C711CD501C401BD
:101AA0000197A109B1096C01C818D90816C0F6013F
:101AB000EE0DFF1D40814A3010F4405D01C0495CCD
:101AC000552747FD5095652F752FC10120E030E067
:101AD0000E94BB0D0894E108F1086E147F0439F7E9
:101AE000A0960FB6F894DEBF0FBECDBFCF91DF91A9
:101AF0001F910F91FF90EF90DF90CF90BF90AF902C
:101B00009F908F907F906F905F904F903F902F901D
:101B10000895DC012115310541F4ED91FC9101900E
:101B2000F081E02D642F099508950E94EF0C08952F
:101B3000EF92FF920F931F939A017B0100E010E058
:101B4000B801A7010E94890D1F910F91FF90EF909E
:101B50000895EF92FF920F931F939A01E62EFF24B0
:101B600000E010E0B801A7010E94890D1F910F91BC
:101B7000FF90EF900895EF92FF920F931F93CF93F2
:101B8000DF93EC017A018B012115310541F4E881E5
:101B9000F9810190F081E02D642F09951BC02A3056
:101BA0003105B1F477FF10C04DE250E060E070E025
:101BB00020E030E00E94BB0D10950095F094E09479
:101BC000E11CF11C011D111DCE01B801A7012AE085
:101BD0000E94EF0CDF91CF911F910F91FF90EF903A
:101BE0000895EF92FF920F931F937B019A010027B4
:101BF000F7FC0095102FB801A7010E94BB0D1F91A3
:101C00000F91FF90EF900895EF92FF920F931F9323
:101C1000E62E9A01FF24E7FCF0940F2D1F2DB8014A
:101C2000A7010E94BB0D1F910F91FF90EF900895A7
:101C30000F931F938C014DE050E060E070E020E0D6
:101C400030E00E94BB0DC8014AE050E060E070E067
:101C500020E030E00E94BB0D1F910F9108950F937B
:101C60001F938C010E94890DC8010E94180E1F91BC
:101C70000F910895CF92DF92EF92FF920F931F93EF
:101C80008C019A016B01EE24FF24B701A6010E948A
:101C9000890DC8010E94180E1F910F91FF90EF90BF
:101CA000DF90CF900895CF92DF92EF92FF920F9343
:101CB0001F938C019A01C62EDD24EE24FF24B70168
:101CC000A6010E94890DC8010E94180E1F910F9154
:101CD000FF90EF90DF90CF9008950F931F938C01AA
:101CE0000E94BD0CC8010E94180E1F910F9108950B
:101CF0000F931F938C010E94C50CC8010E94180EFF
:101D00001F910F9108950F931F938C010E94BB0D9B
:101D1000C8010E94180E1F910F910895CF92DF9273
:101D2000EF92FF920F931F938C016B019A01EE24A7
:101D3000D7FCE094FE2CB701A6010E94BB0DC801A0
:101D40000E94180E1F910F91FF90EF90DF90CF909F
:101D50000895CF92DF92EF92FF920F931F938C0121
:101D6000C62E9A01DD24C7FCD094ED2CFD2CB701C2
:101D7000A6010E94BB0DC8010E94180E1F910F9171
:101D8000FF90EF90DF90CF9008959F92AF92BF9217
:101D9000CF92DF92EF92FF920F931F93CF93DF9337
:101DA000EC017A018B01922ECB01BA0120E030E0E8
:101DB00040E050E00E94390488236CF4CE014DE2EB
:101DC00050E060E070E020E030E00E94BB0D17FBC7
:101DD000109517F9109520E030E040E05FE3AA2469
:101DE0000BC0CA01B90120E030E040E251E40E949A
:101DF0005D039B01AC01A394A91498F3C801B7013A
:101E00000E9436025B016C010E948D007B018C01F7
:101E1000CE01B801A7012AE030E00E94890D992087
:101E200029F0CE0160E071E00E94BD0CC801B7014D
:101E30000E941B059B01AC01C601B5010E94050271
:101E400022C020E030E040E251E40E9463027B01C6
:101E50008C010E94C7045B016C01CC24B7FCC094C8
:101E6000DC2CCE01B601A5012AE030E00E94BB0DBA
:101E7000C601B5010E9469049B01AC01C801B7010C
:101E80000E9405029A949920E1F6DF91CF911F916B
:101E90000F91FF90EF90DF90CF90BF90AF909F9009
:101EA00008950E94C50E08950F931F938C010E9400
:101EB000C50EC8010E94180E1F910F910895813020
:101EC00041F0813018F08230D1F409C010926E00D8
:101ED000089580916F008D7F80936F0008958091A9
:101EE00070008D7F8093700081E08093B0008091BE
:101EF000B100887F84608093B1001092B300089590
:101F00001F920F920FB60F9211242F933F934F936E
:101F10005F936F937F938F939F93AF93BF93EF9351
:101F2000FF938091E9029091EA02A091EB02B091B7
:101F3000EC020097A105B10551F1E091ED02F0919D
:101F4000EE0280819091EF02892780838091E902DF
:101F50009091EA02A091EB02B091EC0218161906DA
:101F60001A061B060CF58091E9029091EA02A091F5
:101F7000EB02B091EC020197A109B1098093E9024B
:101F80009093EA02A093EB02B093EC020DC082E0C2
:101F90000E945F0FE091ED02F091EE02908180913E
:101FA000EF02809589238083FF91EF91BF91AF91DC
:101FB0009F918F917F916F915F914F913F912F9161
:101FC0000F900FBE0F901F9018951F93182F8091A0
:101FD0001502811711F09FEF06C0E8E6F0E094913A
:101FE0008FEF80931502892F0E945F0F812F60E091
:101FF0000E940D1D1F9108952F923F925F926F9244
:102000007F928F929F92AF92BF92CF92DF92EF9288
:10201000FF920F931F93DF93CF9300D000D0CDB7E3
:10202000DEB7A82F1B0129833A834B835C83809101
:1020300015028A1721F4E8E6F0E0549082C08F3F41
:1020400009F0D9C1A0931502E8E6F0E054902FEF13
:10205000521609F4D0C181E0581639F192E05916B0
:1020600009F449C0552009F06CC014BC15BC84B5F6
:10207000826084BD85B5816085BD2A2F30E0F9017D
:10208000E957FF4FE491F0E0EE0FFF1FED58FF4FCF
:10209000859194919093E0028093DF0225563F4F03
:1020A000F90184918093E1024EC010928000109259
:1020B00081008091810088608093810080918100FF
:1020C0008160809381002A2F30E0F901E957FF4FAA
:1020D000E491F0E0EE0FFF1FED58FF4F85919491D2
:1020E0009093E7028093E60225563F4FF9018491D1
:1020F0008093E80228C01092B0001092B100809145
:10210000B00082608093B0008091B10081608093C4
:10211000B1002A2F30E0F901E957FF4FE491F0E0D8
:10212000EE0FFF1FED58FF4F859194919093EE02B3
:102130008093ED0225563F4FF90184918093EF0281
:1021400002C057FC58C18A2F61E00E94E71C55204D
:1021500021F0F2E05F1609F0BDC031018824992416
:1021600060E072E18AE790E0A40193010E94EA1E18
:1021700059016A01860175010894E108F108010915
:1021800011092FEFE216F1040105110509F008F419
:1021900098C060E472E48FE090E0A40193010E9493
:1021A000EA1E79018A010894E108F1080109110980
:1021B00082E05816C1F49FEFE916F10401051105FC
:1021C00009F008F483C060E970ED83E090E0A401B9
:1021D00093010E94EA1E79018A010894E108F1083E
:1021E0000109110983E0AFEFEA16F10401051105B9
:1021F00009F008F467C068E478EE81E090E0A4019B
:1022000093010E94EA1E79018A010894E108F1080D
:1022100001091109552011F483E01DC0B2E05B16DD
:1022200011F084E018C0EFEFEE16F104010511057E
:1022300009F008F4DEC064E274EF80E090E0A401ED
:1022400093010E94EA1E79018A010894E108F108CD
:102250000109110985E0FFEFEF16F10401051105F1
:1022600089F180F162E17AE780E090E0A4019301D6
:102270000E94EA1E79018A010894E108F108010927
:102280001109552011F086E001C084E02FEFE2161D
:10229000F10401051105B1F0A8F0860175019AE07D
:1022A00016950795F794E7949A95D1F70894E10865
:1022B000F10801091109552011F087E008C085E0F7
:1022C00003C081E0552019F485BD3AC082E08093B7
:1022D000B10036C05101CC24DD2460E072E18AE710
:1022E00090E0A60195010E94EA1E79018A010894F6
:1022F000E108F1080109110980E0E81680E0F8061C
:1023000081E0080780E0180710F491E010C068E44D
:1023100078EE81E090E0A60195010E94EA1E790125
:102320008A010894E108F1080109110993E0A1E08C
:102330005A1631F480918100887F982B9093810008
:1023400089819A81AB81BC810097A105B10529F4EF
:102350008FEF9FEFAFEFBFEF13C0220C331CB10123
:1023600080E090E029813A814B815C810E94B81E17
:1023700028EE33E040E050E00E94EA1EC901DA0195
:10238000E1E05E16A1F0F2E05F1619F1552099F533
:10239000E7BC8093DB029093DC02A093DD02B09354
:1023A000DE0280916E00826080936E0024C0F09205
:1023B0008900E09288008093E2029093E302A09368
:1023C000E402B093E50280916F00826080936F0019
:1023D00012C0E092B3008093E9029093EA02A093C6
:1023E000EB02B093EC0280917000826080937000E9
:1023F00002C084E06CCF0F900F900F900F90CF91A0
:10240000DF911F910F91FF90EF90DF90CF90BF90E1
:10241000AF909F908F907F906F905F903F902F90A4
:102420000895823000F5E82FF0E0EE0FFF1FE05135
:10243000FD4F71836083882319F08130A1F408C0B7
:10244000809169008C7F842B80936900E89A0895BD
:1024500080916900440F551F440F551F837F842BC3
:1024600080936900E99A0895823080F4882319F0F6
:10247000813021F402C0E89801C0E998E82FF0E02B
:10248000EE0FFF1FE051FD4F1182108208951F9241
:102490000F920FB60F9211242F933F934F935F9398
:1024A0006F937F938F939F93AF93BF93EF93FF931C
:1024B0008091F0029091F102892B29F0E091F002D5
:1024C000F091F1020995FF91EF91BF91AF919F912A
:1024D0008F917F916F915F914F913F912F910F90CD
:1024E0000FBE0F901F9018951F920F920FB60F926C
:1024F00011242F933F934F935F936F937F938F9309
:102500009F93AF93BF93EF93FF938091F2029091CB
:10251000F302892B29F0E091F202F091F302099580
:10252000FF91EF91BF91AF919F918F917F916F91AB
:102530005F914F913F912F910F900FBE0F901F9081
:1025400018952F923F924F925F926F927F928F9247
:102550009F92AF92BF92CF92DF92EF92FF920F9332
:102560001F93DF93CF93CDB7DEB73B014C01190129
:102570002A016D897E898F89988D6A197B098C095A
:102580009D09621A730A840A950AA40193010E94A4
:10259000B81EE218F30804091509A80197010E9462
:1025A0000C1F2A0D3B1D4C1D5D1DB901CA01CF91A9
:1025B000DF911F910F91FF90EF90DF90CF90BF9030
:1025C000AF909F908F907F906F905F904F903F90D3
:1025D0002F900895089570E0382F20E0622B732B20
:1025E000CB010895EF92FF920F931F937B018C0113
:1025F000611571058105910529F420E030E040E086
:1026000050E00BC00E94E108A80197010E940C1F36
:10261000AC01CB01DA019C01AD01B901CA011F91E6
:102620000F91FF90EF900895EF92FF920F931F93F9
:102630007B018C01621773078407950764F4261BDE
:10264000370B480B590BCA01B9010E94F212E60E72
:10265000F71E081F191FB701C8011F910F91FF90A6
:10266000EF900895009729F0BC0180E090E00E946F
:10267000E6080895FC010190F081E02DE60FF71FB8
:1026800080810895DC01ED91FC911197309751F014
:1026900014968D919C9115976817790718F4E60F99
:1026A000F71F40830895FC019B0184819581681781
:1026B000790728F4608171816115710529F4109200
:1026C000F40264EF72E002C0620F731FCB01089541
:1026D000FC010190F081E02DE60FF71F8081089545
:1026E0000F931F93CF93DF93FC018B01411551058D
:1026F000A1F06115710589F084819581EA01219726
:102700008C179D0708F4EC0160817181C801AE014E
:102710000E942309C00FD11F1882DF91CF911F9112
:102720000F9108950F931F93CF93DF93FC018B01BB
:1027300041155105A1F06115710589F084819581DC
:10274000EA0121978C179D0708F4EC0160817181E3
:10275000C801AE010E942309C00FD11F1882DF916A
:10276000CF911F910F9108950F931F938C01FC013E
:10277000808191810E943608F801138212821582AD
:1027800014821F910F910895FC01DB0114962D9185
:102790003C91159784819581821B930B8417950733
:1027A00010F480E00895808191816D917C91840F77
:1027B000951FA9010E9415099C0180E0232B09F4B3
:1027C00081E00895FC01DB012481358114968D910F
:1027D0009C9115972817390710F480E00895CF01D0
:1027E00040E050E00E94C4130895DF92EF92FF9200
:1027F0000F931F93CF93DF93EC018C819D8148173A
:102800005907C8F47A010894E11CF11CE881F981A8
:10281000EE0DFF1DD080108208811981772767FD9A
:102820007095C8010E9432099C010E0D1F1DF80110
:10283000D082009719F4EFEFFFEF05C088819981EE
:10284000F901E81BF90BCF01DF91CF911F910F9197
:10285000FF90EF90DF900895FC0144815581415035
:1028600050400E94F5130895CF93DF93FC01DB01E4
:10287000848195814817590760F4C081D1816D9199
:102880007C91CE01840F951F0E943D099C01009709
:1028900019F42FEF3FEF02C02C1B3D0BC901DF9154
:1028A000CF91089540E050E00E9434140895CF93F2
:1028B000DF93FC01848195814817590768F4C08132
:1028C000D181772767FD7095CE01840F951F0E94F7
:1028D000FA089C01009719F42FEF3FEF02C02C1B60
:1028E0003D0BC901DF91CF91089540E050E00E9477
:1028F00057140895DC01FB0114962D913C91159716
:10290000848195812817390711F080E0089560814E
:1029100071818D919C910E9405099C0180E0232B7F
:1029200009F481E00895FC01DB01248135811496CE
:102930008D919C9115972817390710F480E0089520
:10294000281B390B808191816D917C91820F931F9F
:102950000E9405099C0180E0232B09F481E0089581
:10296000DC01FB01608171818D919C910E940509C0
:10297000292F332727FD3095209530952227330FB7
:10298000221F3327C9010895DC01FB016081718199
:102990008D919C910E94050940E050E0181619069F
:1029A00014F041E050E0CA010895DC01FB016081B0
:1029B00071818D919C910E94050940E050E01816AC
:1029C000190614F441E050E0CA010895DC01FB014E
:1029D000608171818D919C910E940509292F332777
:1029E00027FD30952227330F221F3327C901089571
:1029F000DC01FB0114962D913C9115978481958102
:102A00002817390751F4608171818D919C910E9442
:102A100005099C0180E0232B09F081E090E00895F6
:102A2000DC01FB0114962D913C91159784819581D1
:102A30002817390711F080E00BC0608171818D91FA
:102A40009C910E9405099C0180E0232B09F481E000
:102A500090E00895FC01DB016D917C918081918172
:102A60000E9405090895CF93DF93EC01CB017B838E
:102A70006A8301960E94890799838883009721F4CD
:102A80001B821A821D821C82DF91CF910895EF92E2
:102A9000FF920F931F93CF93DF93EC017B01FB0118
:102AA000648175818C819D81680F791F7D836C8322
:102AB0008A819B818617970778F408811981CE0156
:102AC0000E94331588819981009719F0B8010E94FE
:102AD0000E09C8010E94360888819981009729F063
:102AE000F701608171810E94EF08CE01DF91CF91E3
:102AF0001F910F91FF90EF9008950E944715089540
:102B00000F931F93CF93DF93EC018B0186179707E9
:102B100009F1FB01248135818C819D818217930706
:102B200050F4888199810E943608F801648175818A
:102B3000CE010E943315288139812115310551F0CC
:102B4000F801848195819D838C8360817181C901A5
:102B50000E940E09CE01DF91CF911F910F91089530
:102B60001F93CF93DF93EC01162F81E090E09D83BC
:102B70008C83CE0161E070E00E943315E881F98119
:102B8000309721F01083E881F9811182DF91CF9194
:102B90001F9108951F93CF93DF93EC01162F81E0CF
:102BA00090E09D838C83CE0161E070E00E9433153C
:102BB000E881F981309721F01083E881F981118251
:102BC000DF91CF911F9108951F93CF93DF93EC0175
:102BD000162F81E090E09D838C83CE0161E070E050
:102BE0000E943315E881F981309721F01083E88144
:102BF000F9811182DF91CF911F9108951F93CF9397
:102C0000DF93EC01162F81E090E09D838C83CE0151
:102C100061E070E00E943315E881F981309721F07E
:102C20001083E881F9811182DF91CF911F9108957E
:102C30000F931F93CF93DF938C01EB016C817D8108
:102C4000FC01758364830E943315F80180819181B2
:102C5000009721F0688179810E940E09DF91CF9160
:102C60001F910F9108950F931F93CF93DF938C01C2
:102C7000EB016C817D81FC01758364830E943315B7
:102C8000F80180819181009721F0688179810E940B
:102C90000E09DF91CF911F910F910895EF92FF924E
:102CA0000F931F93DF93CF93CDB7DEB7A1970FB6E6
:102CB000F894DEBF0FBECDBF8C01CB01BA017E01FF
:102CC0000894E11CF11CA7012AE030E00E94AC0945
:102CD000F70101900020E9F73197EE19FF09D801BB
:102CE0001596FC93EE931497C801BF010E9433150B
:102CF000F80180819181009719F0B7010E940E09B7
:102D0000A1960FB6F894DEBF0FBECDBFCF91DF9175
:102D10001F910F91FF90EF900895EF92FF920F9304
:102D20001F93DF93CF93CDB7DEB7A1970FB6F8947B
:102D3000DEBF0FBECDBF8C01CB01BA017E0108946E
:102D4000E11CF11CA7012AE030E00E94AC09F70168
:102D500001900020E9F73197EE19FF09D801159687
:102D6000FC93EE931497C801BF010E943315F8013C
:102D700080819181009719F0B7010E940E09A196F8
:102D80000FB6F894DEBF0FBECDBFCF91DF911F917C
:102D90000F91FF90EF900895EF92FF920F931F9382
:102DA000DF93CF93CDB7DEB7A1970FB6F894DEBF10
:102DB0000FBECDBF8C019A0180E090E07E010894A7
:102DC000E11CF11CA7010E94AC09F7010190002051
:102DD000E9F73197EE19FF09D8011596FC93EE93A8
:102DE0001497C801BF010E943315F80180819181B9
:102DF000009719F0B7010E940E09A1960FB6F8943A
:102E0000DEBF0FBECDBFCF91DF911F910F91FF901D
:102E1000EF900895EF92FF920F931F93DF93CF935C
:102E2000CDB7DEB7A1970FB6F894DEBF0FBECDBF0A
:102E30008C019A0180E090E07E010894E11CF11C75
:102E4000A7010E94AC09F70101900020E9F7319732
:102E5000EE19FF09D8011596FC93EE931497C8015B
:102E6000BF010E943315F80180819181009719F00C
:102E7000B7010E940E09A1960FB6F894DEBF0FBEEF
:102E8000CDBFCF91DF911F910F91FF90EF900895EB
:102E90000F931F93CF93DF938C01EB0161157105A5
:102EA00011F4C2E0D1E0FE0101900020E9F7319772
:102EB000EC1BFD0BD8011596FC93EE931497C801FB
:102EC000BF010E943315F80180819181009719F0AC
:102ED000BE010E940E09DF91CF911F910F910895BD
:102EE000AF92BF92CF92DF92EF92FF920F931F9318
:102EF000CF93DF93B82EA92E6B01C82FD92FFB01DA
:102F000060817181CE010E944817EE24FF2410C019
:102F1000088119810E0D1F1DF8018081992787FDF9
:102F200090950E94881FF80180830894E11CF11C91
:102F3000F60184819581E816F90650F38B2D9A2DC0
:102F4000DF91CF911F910F91FF90EF90DF90CF9085
:102F5000BF90AF900895AF92BF92CF92DF92EF9261
:102F6000FF920F931F93CF93DF93B82EA92E6B017F
:102F7000C82FD92FFB0160817181CE010E944817B3
:102F8000EE24FF2410C0088119810E0D1F1DF801C9
:102F90008081992787FD90950E94801FF80180838A
:102FA0000894E11CF11CF60184819581E816F9066C
:102FB00050F38B2D9A2DDF91CF911F910F91FF90A0
:102FC000EF90DF90CF90BF90AF900895EF92FF9277
:102FD0000F931F93DF93CF93CDB7DEB72C970FB628
:102FE000F894DEBF0FBECDBFFC017B0186179707AB
:102FF00011F401E029C024813581DB0114968D9103
:103000009C9115972817390711F000E01DC0CE01DB
:103010000196BF010E94AB1709811A81CE01079664
:10302000B7010E94AB176F817885C8010E9405091E
:1030300000E0009709F401E0CE0107960E94B41366
:10304000CE0101960E94B413802F2C960FB6F894EF
:10305000DEBF0FBECDBFCF91DF911F910F91FF90CB
:10306000EF900895CF92DF92EF92FF921F93CF934C
:10307000DF936C017B01B9012417350710F4BA0105
:10308000A901D70114968D919C911597EB01861794
:10309000970708F4EC01D701ED91FC911197EC0F23
:1030A000FD1F108110826D917C91640F751FC60108
:1030B0000E944817D701ED91FC91EC0FFD1F108382
:1030C000C601DF91CF911F91FF90EF90DF90CF90DD
:1030D00008950F931F938C01FB01248135810E9479
:1030E0003218C8011F910F9108958F929F92AF924D
:1030F000BF92CF92DF92EF92FF920F931F93DF93D5
:10310000CF9300D000D000D0CDB7DEB75C016B010B
:10311000DB0114968D919C9115970097A1F1019771
:103120004817590780F1F50184819581481759079F
:1031300050F5ED91FC9100817A014E010894811CBB
:10314000911C1FC0D501ED91FC91EE0DFF1D8081FA
:103150008017A1F4F601248135812E0D3F1DC40195
:10316000B501A7010E943218C401B6010E947A1469
:10317000182FC4010E94B413112341F40894E108EC
:10318000F108F7FEDFCFEE24EA94FE2CC701269665
:103190000FB6F894DEBF0FBECDBFCF91DF911F9168
:1031A0000F91FF90EF90DF90CF90BF90AF909F90E6
:1031B0008F900895FC01DB014481558114968D9117
:1031C0009C911597481B590BCF010E9475180895C3
:1031D000AF92BF92CF92DF92EF92FF920F931F9325
:1031E000DF93CF9300D000D000D0CDB7DEB75C0125
:1031F0008B01DB016D917C916115710521F4B801A2
:103200000E94181642C0CE0101960E944817F8018C
:10321000E480F580CC24DD2410C0D801ED91FC9130
:10322000EC0DFD1D8081992787FD90950E94781FE8
:10323000892B31F00894C11CD11CCE14DF0468F333
:10324000ED80FE800DC0D801ED91FC91EE0DFF1DCB
:103250008081992787FD90950E94781F892B31F0F6
:103260000894E108F108CE14DF0468F30894E11C27
:10327000F11CC5018E010F5F1F4FB801A601970118
:103280000E943218C8010E94B413C50126960FB6D9
:10329000F894DEBF0FBECDBFCF91DF911F910F918C
:1032A000FF90EF90DF90CF90BF90AF9008952F9256
:1032B0003F924F925F926F927F928F929F92AF92C6
:1032C000BF92CF92DF92EF92FF920F931F93DF9303
:1032D000CF93CDB7DEB768970FB6F894DEBF0FBEB9
:1032E000CDBF3C01FB012A0119016081718161158B
:1032F000710521F4BF010E9418165AC07E0108947E
:10330000E11CF11CC7010E9448178E01095F1F4F85
:10331000C80162E071E00E944817D02EC12E3DE046
:10332000832E912C8C0E9D1E23E1A22EB12CAC0E6F
:10333000BD1E24C0C401B70140E050E098010E94C6
:1033400032188D2D9C2DB4010E944715C4010E9496
:10335000B4138D2D9C2DB1010E944715F2014481BB
:103360005581400F511FC501B7010E946918C7015F
:10337000B5010E948015C5010E94B413C701B201B6
:103380000E9452148C01FFEF8F3F9F0799F68D2DFD
:103390009C2DB7010E944715C3016D2D7C2D0E9405
:1033A00018168D2D9C2D0E94B413C7010E94B413D2
:1033B000C30168960FB6F894DEBF0FBECDBFCF91A4
:1033C000DF911F910F91FF90EF90DF90CF90BF9012
:1033D000AF909F908F907F906F905F904F903F90B5
:1033E0002F900895DF92EF92FF920F931F93DF9338
:1033F000CF9300D000D000D0CDB7DEB77C01FB0169
:10340000142FD22E608171816115710521F4BF01E5
:103410000E9418161CC0CE0101960E94481789818F
:103420009A81012F112707FD109501C0D082B801A4
:103430000E94FA08FC010097C9F7C7018E010F5FCF
:103440001F4FB8010E941816C8010E94B413C7018B
:1034500026960FB6F894DEBF0FBECDBFCF91DF9199
:103460001F910F91FF90EF90DF9008950F931F939E
:10347000CF93DF938C01EB016115710511F4C2E06C
:10348000D1E0FE0101900020E9F73197EC1BFD0B24
:10349000D8011596FC93EE931497C801BF010E94C2
:1034A0003315F80180819181009719F0BE010E94C7
:1034B0000E09DF91CF911F910F910895EF92FF9226
:1034C0000F931F93DF93CF93CDB7DEB7A1970FB6BE
:1034D000F894DEBF0FBECDBF8C01CB01BA017E01D7
:1034E0000894E11CF11CA7010E947809F7010190E2
:1034F0000020E9F73197EE19FF09D8011596FC93E2
:10350000EE931497C801BF010E943315F801808122
:103510009181009719F0B7010E940E09A1960FB68C
:10352000F894DEBF0FBECDBFCF91DF911F910F91F9
:10353000FF90EF900895EF92FF920F931F93DF9308
:10354000CF93CDB7DEB7A1970FB6F894DEBF0FBE0D
:10355000CDBF8C01CB01BA017E010894E11CF11CA6
:10356000A7010E947809F70101900020E9F731973F
:10357000EE19FF09D8011596FC93EE931497C80134
:10358000BF010E943315F80180819181009719F0E5
:10359000B7010E940E09A1960FB6F894DEBF0FBEC8
:1035A000CDBFCF91DF911F910F91FF90EF900895C4
:1035B000EF92FF920F931F93DF93CF93CDB7DEB7B8
:1035C000A1970FB6F894DEBF0FBECDBF8C01CB0123
:1035D0007E010894E11CF11CB7010E945709F70114
:1035E00001900020E9F73197EE19FF09D8011596EF
:1035F000FC93EE931497C801BF010E943315F801A4
:1036000080819181009719F0B7010E940E09A1965F
:103610000FB6F894DEBF0FBECDBFCF91DF911F91E3
:103620000F91FF90EF900895EF92FF920F931F93E9
:10363000DF93CF93CDB7DEB7A1970FB6F894DEBF77
:103640000FBECDBF8C01CB017E010894E11CF11CA3
:10365000B7010E945709F70101900020E9F731975F
:10366000EE19FF09D8011596FC93EE931497C80143
:10367000BF010E943315F80180819181009719F0F4
:10368000B7010E940E09A1960FB6F894DEBF0FBED7
:10369000CDBFCF91DF911F910F91FF90EF900895D3
:1036A0001F920F920FB60F9211242F933F938F9377
:1036B0009F93AF93BF938091F9029091FA02A091EA
:1036C000FB02B091FC023091FD020196A11DB11DDB
:1036D000232F2D5F2D3720F02D570196A11DB11DF1
:1036E0002093FD028093F9029093FA02A093FB02CB
:1036F000B093FC028091F5029091F602A091F7023E
:10370000B091F8020196A11DB11D8093F50290932E
:10371000F602A093F702B093F802BF91AF919F9188
:103720008F913F912F910F900FBE0F901F90189582
:103730008FB7F8942091F9023091FA024091FB0280
:103740005091FC028FBFB901CA0108959FB7F89448
:103750002091F5023091F6024091F7025091F80263
:1037600086B5A89B06C08F3F21F02F5F3F4F4F4F7C
:103770005F4F9FBF542F432F322F2227280F311D19
:10378000411D511D82E0220F331F441F551F8A9592
:10379000D1F7B901CA0108959B01AC017FB7F89434
:1037A0008091F5029091F602A091F702B091F80293
:1037B00066B5A89B05C06F3F19F00196A11DB11D0C
:1037C0007FBFBA2FA92F982F8827860F911DA11D83
:1037D000B11D62E0880F991FAA1FBB1F6A95D1F720
:1037E000BC012DC0FFB7F8948091F5029091F602CC
:1037F000A091F702B091F802E6B5A89B05C0EF3F93
:1038000019F00196A11DB11DFFBFBA2FA92F982F46
:1038100088278E0F911DA11DB11DE2E0880F991F11
:10382000AA1FBB1FEA95D1F7861B970B885E9340B2
:10383000C8F2215030404040504068517C4F211523
:1038400031054105510571F60895019739F0880F4A
:10385000991F880F991F02970197F1F7089578949F
:1038600084B5826084BD84B5816084BD85B5826085
:1038700085BD85B5816085BDEEE6F0E08081816023
:103880008083E1E8F0E080818260808380818160D4
:103890008083E0E8F0E0808181608083E1EBF0E00C
:1038A000808184608083E0EBF0E0808181608083B0
:1038B000EAE7F0E080818460808380818260808399
:1038C0008081816080838081806880831092C100C4
:1038D0000895809316020895982F8E3008F09E5018
:1038E0009770809116028295880F880F807C892BB3
:1038F00080937C0080917A00806480937A0080912C
:103900007A0086FDFCCF2091780040917900942FB9
:1039100080E030E0282B392BC90108951F93CF9305
:10392000DF93182FEB0161E00E94E71CE12FF0E02C
:10393000E155FF4F8491833051F48091800080687D
:1039400080938000D0938900C09388003CC084306D
:1039500051F480918000806280938000D0938B002E
:10396000C0938A0030C0813039F4209729F184B5A2
:10397000806884BDC7BD27C0823039F42097E1F04C
:1039800084B5806284BDC8BD1EC0863041F480917C
:10399000B00080688093B000C093B30014C087303B
:1039A00041F48091B00080628093B000C093B40075
:1039B0000AC0C038D1051CF4812F60E002C0812FFD
:1039C00061E00E940D1DDF91CF911F910895482F56
:1039D00050E0CA0185569F4FFC01249149575F4F23
:1039E000FA0184918823C1F0E82FF0E0EE0FFF1F69
:1039F000E759FF4FA591B491662341F49FB7F8941E
:103A00008C91209582238C939FBF08959FB7F89443
:103A10008C91822B8C939FBF0895482F50E0CA0150
:103A200081559F4FFC012491CA0185569F4FFC018F
:103A3000349149575F4FFA019491992309F440C09A
:103A4000222331F1233021F4809180008F7705C04B
:103A5000243031F4809180008F7D8093800018C0E5
:103A6000213019F484B58F7704C0223021F484B555
:103A70008F7D84BD0DC0263021F48091B0008F77FA
:103A800005C0273029F48091B0008F7D8093B0006D
:103A9000E92FF0E0EE0FFF1FED58FF4FA591B49115
:103AA000662341F49FB7F8948C91309583238C93CF
:103AB0009FBF08959FB7F8948C91832B8C939FBFE1
:103AC0000895682F70E0CB0181559F4FFC01249130
:103AD000CB0185569F4FFC01449169577F4FFB01F5
:103AE0009491992319F420E030E038C0222331F179
:103AF000233021F4809180008F7705C0243031F489
:103B0000809180008F7D8093800018C0213019F44F
:103B100084B58F7704C0223021F484B58F7D84BDB5
:103B20000DC0263021F48091B0008F7705C027307A
:103B300029F48091B0008F7D8093B000892F90E0B0
:103B4000880F991F83589F4FFC01A591B4918C91C8
:103B500020E030E0842311F021E030E0C901089535
:103B6000DF92EF92FF920F931F93A82FB0E0CD0149
:103B700085569F4FFC01D490A957BF4FFD018491FA
:103B8000662311F490E001C09D2D6FEFE62E6FEFDC
:103B9000F62E6FEF062F6FE0162FE222F32204239A
:103BA0001523682F70E0660F771F63587F4F20E062
:103BB00030E040E050E0FB01A591B4910AC02E1521
:103BC0003F054007510709F440C02F5F3F4F4F4F5B
:103BD0005F4F8C918D21891791F30AC02E153F05F7
:103BE0004007510791F12F5F3F4F4F4F5F4F03C089
:103BF000FB01A591B4918C918D21891779F720E073
:103C000030E040E050E0FB01A591B49104C02F5F8B
:103C10003F4F4F4F5F4F8C918D218917C1F3CA01E0
:103C2000B9012AE030E040E050E00E94B81E9B015C
:103C3000AC01205F3F4F4F4F5F4F84E05695479553
:103C4000379527958A95D1F704C020E030E040E011
:103C500050E0B901CA011F910F91FF90EF90DF90E2
:103C60000895BF92CF92DF92EF92FF920F931F932E
:103C7000CF93DF93E82EF62EB42EC7E0D0E0022FCC
:103C800010E087E0C82ED12CBB2059F4B6016C1B84
:103C90007D0BC80102C0959587956A95E2F7BC0136
:103CA00007C0B8010C2E02C0759567950A94E2F71B
:103CB00061708E2D0E940D1D8F2D61E00E940D1DE3
:103CC0008F2D60E00E940D1D21979FEFCF3FD907F8
:103CD000D9F6DF91CF911F910F91FF90EF90DF9078
:103CE000CF90BF900895CF92DF92EF92FF920F9303
:103CF0001F93CF93DF93F82E062FE42E10E0C7E03A
:103D0000D0E097E0C92ED12C802F61E00E940D1DDC
:103D1000EE2061F48F2D0E94611D96012C1B3D0B3E
:103D200002C0880F991F2A95E2F709C08F2D0E94C3
:103D3000611D0C2E02C0880F991F0A94E2F7182B00
:103D4000802F60E00E940D1D21978FEFCF3FD80795
:103D5000D9F6812FDF91CF911F910F91FF90EF90B6
:103D6000DF90CF900895089508950E942F1CFFCFF3
:103D7000629FD001739FF001829FE00DF11D649F4F
:103D8000E00DF11D929FF00D839FF00D749FF00DDB
:103D9000659FF00D9927729FB00DE11DF91F639F7C
:103DA000B00DE11DF91FBD01CF011124089597FB4E
:103DB000092E07260AD077FD04D049D006D000206E
:103DC0001AF4709561957F4F0895F6F79095819557
:103DD0009F4F0895A1E21A2EAA1BBB1BFD010DC027
:103DE000AA1FBB1FEE1FFF1FA217B307E407F507AB
:103DF00020F0A21BB30BE40BF50B661F771F881F87
:103E0000991F1A9469F760957095809590959B011C
:103E1000AC01BD01CF01089597FB092E05260ED0F8
:103E200057FD04D0D7DF0AD0001C38F450954095D8
:103E3000309521953F4F4F4F5F4F0895F6F790957E
:103E40008095709561957F4F8F4F9F4F0895AA1B66
:103E5000BB1B51E107C0AA1FBB1FA617B70710F075
:103E6000A61BB70B881F991F5A95A9F780959095A7
:103E7000BC01CD0108952F923F924F925F926F92B5
:103E80007F928F929F92AF92BF92CF92DF92EF92EA
:103E9000FF920F931F93CF93DF93CDB7DEB7CA1B6B
:103EA000DB0B0FB6F894DEBF0FBECDBF09942A8896
:103EB000398848885F846E847D848C849B84AA843E
:103EC000B984C884DF80EE80FD800C811B81AA81CB
:103ED000B981CE0FD11D0FB6F894DEBF0FBECDBF96
:103EE000ED010895EE0FFF1F0590F491E02D099468
:103EF000911116C0803219F089508550D0F708957D
:103F00009111089581548A5108F4805E855A08956C
:103F10009111089581568A5108F480528558089568
:0A3F2000992788270895F894FFCF31
:103F2A002E00000000000000000000000102020351
:103F3A000303030404040404040404050505050535
:103F4A000505050505050505050505060606060612
:103F5A0006060606060606060606060606060606F7
:103F6A0006060606060606060606060707070707E2
:103F7A0007070707070707070707070707070707C7
:103F8A0007070707070707070707070707070707B7
:103F9A0007070707070707070707070707070707A7
:103FAA000707070707070707070707080808080892
:103FBA000808080808080808080808080808080877
:103FCA000808080808080808080808080808080867
:103FDA000808080808080808080808080808080857
:103FEA000808080808080808080808080808080847
:103FFA000808080808080808080808080808080837
:10400A000808080808080808080808080808080826
:10401A000808080808080808080808080808080816
:10402A000808080808080808080808200002030009
:10403A000001000000FF0100000000390C860C9E00
:10404A000CD70B050C2D0CEB0B00000000E10986C8
:10405A000C9E0CE109E109E10900000000E1098672
:04406A000C9E0C009C
:00000001FF
